:100000000C942A000C94120D0C94450D0C9447008E
:100010000C9447000C9447000C946E0C0C94470011
:100020000C9447000C9447000C94A40B0C94560BB2
:100030000C9447000C9447000C9447000C94470024
:100040000C9447000C9447000C9447000C94470014
:100050000C94470011241FBECFE5D8E0DEBFCDBF12
:1000600011E0A0E6B0E0E2EDF7E402C005900D92E9
:10007000AE3BB107D9F711E0AEEBB1E001C01D9284
:10008000A03DB107E1F70E94811F0C94E7230C9477
:100090000000EF92FF920F931F937B018C0120E0F1
:1000A00030E040E05FE40E94F50388238CF0C80153
:1000B000B70120E030E040E05FE40E94C1010E940F
:1000C000B3049B01AC01205030404040504806C072
:1000D000C801B7010E94B3049B01AC01B901CA0178
:1000E0001F910F91FF90EF900895A0E0B0E0EBE733
:1000F000F0E00C942C22DC012B01FA019C9192304F
:1001000008F439C1EB018881823008F433C194309E
:1001100069F4843009F02FC111969C91119789815F
:10012000981709F428C1AFE6B0E025C1843009F47E
:1001300021C18230A9F4923009F01DC19A01AD01AC
:1001400088E0EA010990AE01E90109929E0181501F
:10015000C1F7E201898111969C918923818308C1AD
:10016000923009F407C112962D903C901397EB0141
:100170008A819B811496AD90BD90CD90DC901797AD
:10018000EC80FD800E811F819101281B390BB90184
:1001900037FF04C066277727621B730B6032710537
:1001A0000CF061C0121613066CF537014801062EDB
:1001B00004C096948794779467940A94D2F721E0C8
:1001C00030E040E050E004C0220F331F441F551FB1
:1001D0006A95D2F721503040404050402E213F21B7
:1001E00040235123211531054105510521F021E01E
:1001F00030E040E050E079018A01E628F72808293C
:1002000019293CC0232BD1F1260E371E350146019A
:10021000062E04C096948794779467940A94D2F734
:1002200021E030E040E050E004C0220F331F441FC3
:10023000551F6A95D2F721503040404050402A2146
:100240003B214C215D21211531054105510521F04E
:1002500021E030E040E050E059016A01A628B728CB
:10026000C828D9280BC0821593052CF01C01AA249C
:10027000BB24650103C0EE24FF24870111969C91E5
:10028000D20111968C91981709F445C0992339F041
:10029000A80197012A193B094C095D0906C0A6016E
:1002A00095012E193F09400B510B57FD08C01182D3
:1002B0003382228224833583468357831DC081E0A5
:1002C00081833382228288279927DC01821B930B4A
:1002D000A40BB50B84839583A683B7830DC0220F2F
:1002E000331F441F551F24833583468357838281E0
:1002F000938101979383828324813581468157813D
:10030000DA01C9010197A109B1098F5F9F4FAF4F72
:10031000BF4328F30BC0918333822282EA0CFB1C7B
:100320000C1D1D1DE482F5820683178383E0808304
:10033000248135814681578157FF1AC0C901AA27F8
:1003400097FDA095BA2F81709070A070B0705695EF
:10035000479537952795822B932BA42BB52B848318
:100360009583A683B7838281938101969383828349
:10037000DF0101C0D201CD01CDB7DEB7E2E10C94BF
:100380004822A0E2B0E0E7ECF1E00C943822698367
:100390007A838B839C832D833E834F835887E9E048
:1003A000EE2EF12CEC0EFD1ECE010196B7010E943F
:1003B0002B068E010F5E1F4FCE010596B8010E94DD
:1003C0002B068A8991E089278A8BC701B801AE0183
:1003D000475E5F4F0E9475000E945605A096E6E0BA
:1003E0000C945422A0E2B0E0E8EFF1E00C94382243
:1003F00069837A838B839C832D833E834F835887C5
:10040000F9E0EF2EF12CEC0EFD1ECE010196B701A6
:100410000E942B068E010F5E1F4FCE010596B8017C
:100420000E942B06C701B801AE01475E5F4F0E94D4
:1004300075000E945605A096E6E00C945422A0E2B6
:10044000B0E0E5E2F2E00C942C2269837A838B839E
:100450009C832D833E834F835887CE010196BE0136
:10046000675F7F4F0E942B06CE010596BE016F5E2F
:100470007F4F0E942B069985923088F089898230BF
:10048000C8F0943019F4823051F404C0843029F457
:10049000923081F48FE690E0C6C0923049F420E0BB
:1004A0009A858A89981321E02A87CE010996BBC0D4
:1004B000823049F420E09A858A89981321E02A8BBA
:1004C000CE014196B0C02D843E844F8458886D88FB
:1004D0007E888F88988CEE24FF248701AA24BB2471
:1004E000650140E050E060E070E0E0E0F0E0C10174
:1004F00081709070892BE9F0E60CF71C081D191D1E
:100500009A01AB012A0D3B1D4C1D5D1D80E090E062
:10051000A0E0B0E0E614F7040805190520F481E036
:1005200090E0A0E0B0E0BA01A901480F591F6A1F8E
:100530007B1FAA0CBB1CCC1CDD1C97FE08C081E0F5
:1005400090E0A0E0B0E0A82AB92ACA2ADB2A3196B6
:10055000E032F10549F0660C771C881C991C569412
:10056000479437942794C3CFFA85EA892B893C892D
:100570008B859C85280F391F2E5F3F4F17C0CA01FE
:1005800081709070892B61F016950795F794E79428
:1005900080E090E0A0E0B0E8E82AF92A0A2B1B2BC3
:1005A00076956795579547952F5F3F4F77FDE7CF36
:1005B0000CC0440F551F661F771F17FD4160EE0CDE
:1005C000FF1C001F111F21503040403090E05907A0
:1005D00090E0690790E4790760F32B8F3C8FDB0193
:1005E000CA018F779070A070B07080349105A1051A
:1005F000B10561F447FD0AC0E114F10401051105DC
:1006000029F0405C5F4F6F4F7F4F40781A8EFE1786
:1006100011F081E08A8F4D8F5E8F6F8F78A383E01A
:10062000898FCE0149960E945605A096E2E10C946E
:100630004822A8E1B0E0EFE1F3E00C9434226983B2
:100640007A838B839C832D833E834F835887B9E0C5
:10065000EB2EF12CEC0EFD1ECE010196B7010E948F
:100660002B068E010F5E1F4FCE010596B8010E942A
:100670002B062985223008F47EC03989323010F4E7
:10068000B8017CC08A859A8989278A87243011F02D
:10069000223031F4231709F06EC06FE670E06EC0AF
:1006A000343039F41D861E861F86188A1C861B86E8
:1006B00004C0323021F484E08987B7015FC02B8504
:1006C0003C858B899C89281B390B3C872B87ED84C3
:1006D000FE840F851889AD88BE88CF88D88CEA142F
:1006E000FB040C051D0540F4EE0CFF1C001F111F40
:1006F000215030403C872B8720E030E040E050E044
:1007000080E090E0A0E0B0E460E070E0EA14FB0478
:100710000C051D0540F0282B392B4A2B5B2BEA18C2
:10072000FB080C091D09B695A79597958795EE0CC2
:10073000FF1C001F111F6F5F7F4F6F31710531F775
:10074000DA01C9018F779070A070B0708034910584
:10075000A105B10561F427FD0AC0E114F10401050A
:10076000110529F0205C3F4F4F4F5F4F20782D87B8
:100770003E874F87588BBE01675F7F4FCB010E943A
:1007800056056896EAE00C945022A8E1B0E0EBEC44
:10079000F3E00C94382269837A838B839C832D83C6
:1007A0003E834F83588789E0E82EF12CEC0EFD1E26
:1007B000CE010196B7010E942B068E010F5E1F4FDE
:1007C000CE010596B8010E942B068985823040F043
:1007D0008989823028F0C701B8010E94A30601C0B0
:1007E0008FEF6896E6E00C945422A8E1B0E0EBEFBE
:1007F000F3E00C94382269837A838B839C832D8366
:100800003E834F83588789E0E82EF12CEC0EFD1EC5
:10081000CE010196B7010E942B068E010F5E1F4F7D
:10082000CE010596B8010E942B068985823040F0E2
:100830008989823028F0C701B8010E94A30601C04F
:100840008FEF6896E6E00C945422A8E1B0E0EBE26A
:10085000F4E00C94382269837A838B839C832D8304
:100860003E834F83588789E0E82EF12CEC0EFD1E65
:10087000CE010196B7010E942B068E010F5E1F4F1D
:10088000CE010596B8010E942B068985823040F082
:100890008989823028F0C701B8010E94A30601C0EF
:1008A00081E06896E6E00C945422A8E0B0E0EBE525
:1008B000F4E00C9435229B01AC0183E08983DA01DA
:1008C000C9018827B7FD83959927AA27BB27B82E8A
:1008D000211531054105510519F482E089833AC09B
:1008E0008823A9F0203080E0380780E0480780E8BE
:1008F000580729F460E070E080E09FEC30C0EE24FF
:10090000FF248701E21AF30A040B150B02C07901D8
:100910008A018EE1C82ED12CDC82CB82ED82FE8250
:100920000F831887C801B7010E94070501971816A1
:10093000190684F4082E04C0EE0CFF1C001F111FC2
:100940000A94D2F7ED82FE820F831887C81AD90A5B
:10095000DC82CB82BA82CE0101960E94560528968F
:10096000E9E00C945122ACE0B0E0E9EBF4E00C9447
:100970003C2269837A838B839C83CE010196BE01DE
:100980006B5F7F4F0E942B068D81823061F1823038
:1009900050F1843021F48E81882351F12EC02F81B3
:1009A000388537FD20C06E812F3131051CF066235C
:1009B000F9F023C08EE190E0821B930B29853A85E4
:1009C0004B855C8504C056954795379527958A9544
:1009D000D2F76623B1F050954095309521953F4F61
:1009E0004F4F5F4F0EC020E030E040E050E009C0C4
:1009F0002FEF3FEF4FEF5FE704C020E030E040E033
:100A000050E8B901CA012C96E2E00C945822EF920A
:100A1000FF920F931F937B018C0180E0E81680E02A
:100A2000F80681E0080780E0180788F48FEFE816E1
:100A3000F1040105110531F028F088E090E0A0E014
:100A4000B0E017C080E090E0A0E0B0E012C080E02D
:100A5000E81680E0F80680E0080781E0180728F033
:100A600088E190E0A0E0B0E004C080E190E0A0E088
:100A7000B0E020E230E040E050E0281B390B4A0BA8
:100A80005B0B04C016950795F794E7948A95D2F707
:100A9000F701E958FF4F8081281B310941095109AD
:100AA000C9011F910F91FF90EF900895DF92EF928F
:100AB000FF920F931F93FC01E480F580068117815C
:100AC000D1808081823048F480E090E0A0E1B0E005
:100AD000E82AF92A0A2B1B2BA5C0843009F49FC0F1
:100AE000823021F4EE24FF24870105C0E114F104D3
:100AF0000105110519F4E0E0F0E096C06281738110
:100B00009FEF623879070CF05BC022E83FEF261BAD
:100B1000370B2A3131052CF020E030E040E050E086
:100B20002AC0B801A701022E04C076956795579593
:100B300047950A94D2F781E090E0A0E0B0E004C0CD
:100B4000880F991FAA1FBB1F2A95D2F70197A109E9
:100B5000B1098E219F21A023B1230097A105B105E2
:100B600021F081E090E0A0E0B0E09A01AB01282BF9
:100B7000392B4A2B5B2BDA01C9018F779070A0705B
:100B8000B07080349105A105B10539F427FF09C083
:100B9000205C3F4F4F4F5F4F04C0215C3F4F4F4F92
:100BA0005F4FE0E0F0E02030A0E03A07A0E04A0725
:100BB000A0E45A0710F0E1E0F0E079018A0127C0D3
:100BC0006038710564F5FB01E158FF4FD801C7019A
:100BD0008F779070A070B07080349105A105B10539
:100BE00039F4E7FE0DC080E490E0A0E0B0E004C07E
:100BF0008FE390E0A0E0B0E0E80EF91E0A1F1B1F93
:100C000017FF05C016950795F794E794319687E08E
:100C100016950795F794E7948A95D1F705C0EE24C9
:100C2000FF248701EFEFF0E06E2F67956627679549
:100C3000902F9F77D794DD24D7948E2F8695492FB8
:100C4000462B582F5D29B701CA011F910F91FF90C4
:100C5000EF90DF900895FC01DB01408151812281FA
:100C6000622F6F7770E0221F2227221F9381892F26
:100C7000880F822B282F30E0991F9927991F1196F2
:100C80009C93119721153105A9F541155105610571
:100C9000710511F482E037C082E89FEF13969C93B0
:100CA0008E9312979A01AB0167E0220F331F441F06
:100CB000551F6A95D1F783E08C930DC0220F331F27
:100CC000441F551F12968D919C911397019713966F
:100CD0009C938E931297203080E0380780E048077D
:100CE00080E4580758F314962D933D934D935C93ED
:100CF000179708952F3F310579F441155105610586
:100D0000710519F484E08C93089564FF03C081E0B9
:100D10008C9312C01C9210C02F57304013963C93F6
:100D20002E93129783E08C9387E0440F551F661F24
:100D3000771F8A95D1F7706414964D935D936D93E8
:100D40007C93179708951F93DC01FB019C919230CF
:100D500008F447C08081823008F443C0943051F4D5
:100D600011961C91843099F58181682F70E0611B88
:100D700071093FC0843021F0923031F48230B9F1F2
:100D80008181882389F12DC011961C9111978230A1
:100D9000F1F081811817D9F412962D913C91139797
:100DA000828193818217930794F028173907BCF04A
:100DB00014968D919D910D90BC91A02D248135812B
:100DC00046815781281739074A075B0718F4112312
:100DD00041F00AC082179307A407B50740F4112316
:100DE00019F061E070E005C06FEF7FEF02C060E0D6
:100DF00070E0CB011F910895DF93CF93CDB7DEB79D
:100E0000A1E4B0E0E1E4F0E0808188608C93A1E4AB
:100E1000B0E0E1E4F0E0808181608C93A1E4B0E097
:100E2000E1E4F0E080818D7F8C93A1E4B0E0E1E427
:100E3000F0E080818B7F8C93A1E4B0E0E1E4F0E00E
:100E400080818F7E8C93A1E4B0E0E1E4F0E08081CA
:100E50008F7D8C93AFE5B0E0EFE5F0E080818068B6
:100E60008C93CF91DF910895DF93CF93CDB7DEB709
:100E7000A1E4B0E0E1E4F0E08081877F8C93A1E41D
:100E8000B0E0E1E4F0E0808181608C93A1E4B0E027
:100E9000E1E4F0E0808182608C93A1E4B0E0E1E4E1
:100EA000F0E0808184608C93A1E4B0E0E1E4F0E0C4
:100EB000808180618C93A1E4B0E0E1E4F0E0808186
:100EC00080628C93AFE5B0E0EFE5F0E08081806870
:100ED0008C93CF91DF910895DF93CF93CDB7DEB799
:100EE000A1E4B0E0E1E4F0E0808180618C93A1E4D2
:100EF000B0E0E1E4F0E080818F7E8C93AFE5B0E07C
:100F0000EFE5F0E0808180688C93CF91DF910895C8
:100F1000DF93CF930F92CDB7DEB7198289818068B6
:100F2000898389818F7B898389818F7E8983898168
:100F30008F7D89838981877F898389818460898383
:100F4000898182608983AAE2B0E0EAE2F0E08081F0
:100F50008B7F8C93E0E4F0E089818083E9E2F0E02C
:100F600083E38083AAE2B0E0EAE2F0E0808180617E
:100F70008C93AAE2B0E0EAE2F0E0808188608C9392
:100F80000F90CF91DF910895DF93CF930F92CDB75C
:100F9000DEB78983EBE2F0E08081829586958770E9
:100FA000882F90E0817090700097A1F3ABE2B0E0E1
:100FB000EBE2F0E0808180628C93ECE2F0E08981EA
:100FC00080830F90CF91DF910895DF93CF93CDB7BA
:100FD000DEB7EBE2F0E080818823DCF7ECE2F0E0C2
:100FE0008081CF91DF910895DF93CF9300D00F924E
:100FF000CDB7DEB79B838A8319820EC08981282FE3
:1010000030E08A819B81FC01E20FF31F80810E9406
:10101000C40789818F5F89838981282F30E08A8185
:101020009B81FC01E20FF31F8081882339F70F9029
:101030000F900F90CF91DF910895DF93CF930F9290
:10104000CDB7DEB78983E0E2F0E082E08083A1E201
:10105000B0E0E1E2F0E080818E7F8C93A1E2B0E02D
:10106000E1E2F0E080818D7F8C938981882329F0F3
:10107000E2E2F0E08981880F8083A6E5B0E0E6E552
:10108000F0E0808184608C930F90CF91DF91089580
:10109000DF93CF930F92CDB7DEB78983E2E2F0E022
:1010A0008981880F8083A6E5B0E0E6E5F0E08081E5
:1010B00084608C930F90CF91DF910895DF93CF934D
:1010C0000F92CDB7DEB71982A6E5B0E0E6E5F0E015
:1010D000808180628C93A6E5B0E0E6E5F0E0808157
:1010E00080688C93E6E5F0E080818823DCF7E1E21C
:1010F000F0E08081882F90E0887F907088309105A3
:1011000011F081E0898389810F90CF91DF9108955B
:10111000DF93CF930F92CDB7DEB71982A6E5B0E08B
:10112000E6E5F0E0808180628C93A6E5B0E0E6E53C
:10113000F0E0808180688C93E6E5F0E08081882390
:10114000DCF7E1E2F0E08081882F90E0887F90700A
:101150008031910511F082E0898389810F90CF91D0
:10116000DF910895DF93CF9300D0CDB7DEB78A83A8
:101170001982A6E5B0E0E6E5F0E080818F7D8C93F2
:10118000E3E2F0E08A81880F8083A3E2B0E0E3E24B
:10119000F0E080818E7F8C93A6E5B0E0E6E5F0E09C
:1011A000808180688C93E6E5F0E080818823DCF71D
:1011B000E1E2F0E08081882F90E0887F90708831B4
:1011C000910511F083E0898389810F900F90CF9171
:1011D000DF910895DF93CF9300D0CDB7DEB78A8338
:1011E0001982A6E5B0E0E6E5F0E080818F7D8C9382
:1011F000E3E2F0E08A81880F8083A3E2B0E0E3E2DB
:10120000F0E0808181608C93A6E5B0E0E6E5F0E057
:10121000808180688C93E6E5F0E080818823DCF7AC
:10122000E1E2F0E08081882F90E0887F9070803448
:10123000910511F084E0898389810F900F90CF91FF
:10124000DF910895DF93CF9300D0CDB7DEB78A83C7
:101250001982E3E2F0E08A818083A6E5B0E0E6E56A
:10126000F0E0808180688C93E6E5F0E0808188235F
:10127000DCF7E1E2F0E08081882F90E0887F9070D9
:101280008832910511F085E0898389810F900F9054
:10129000CF91DF910895DF93CF9300D00F92CDB718
:1012A000DEB79B838A831982A6E5B0E0E6E5F0E02D
:1012B000808180648C93A6E5B0E0E6E5F0E0808173
:1012C00080688C93E6E5F0E080818823DCF7E1E23A
:1012D000F0E08081882F90E0887F907080359105C4
:1012E00019F086E0898306C0E3E2F0E08081EA81BC
:1012F000FB81808389810F900F900F90CF91DF91B8
:101300000895DF93CF93CDB7DEB7A6E5B0E0E6E56D
:10131000F0E0808180618C93A6E5B0E0E6E5F0E046
:10132000808180688C93CF91DF910895DF93CF9374
:10133000CDB7DEB7A3E5B0E0E3E5F0E080818F7BD9
:101340008C93A3E5B0E0E3E5F0E08081877F8C93A8
:10135000A3E5B0E0E3E5F0E0808182608C93A3E553
:10136000B0E0E3E5F0E080818E7F8C93A3E5B0E010
:10137000E3E5F0E080818B7F8C93A9E5B0E0E9E5BF
:10138000F0E0808181608C93E2E5F0E080EC808386
:10139000CF91DF910895DF93CF93CDB7DEB7A3E56B
:1013A000B0E0E3E5F0E0808188608C93A3E5B0E0F5
:1013B000E3E5F0E080818F7B8C93A3E5B0E0E3E58B
:1013C000F0E0808182608C93A3E5B0E0E3E5F0E09B
:1013D00080818E7F8C93A3E5B0E0E3E5F0E080812F
:1013E0008B7F8C93A9E5B0E0E9E5F0E08081826035
:1013F0008C93CF91DF910895DF93CF930F92CDB768
:10140000DEB78983ECE5F0E0898180830F90CF918E
:10141000DF910895DF93CF9300D000D000D0CDB7F7
:10142000DEB79E838D838AEF0E94FC091C821B829B
:1014300023C01A82198216C0E8E5F0E08081869503
:10144000882F90E0817090700097B1F3A8E5B0E02C
:10145000E8E5F0E0808182608C9389819A81019631
:101460009A83898389819A818430910528F38B81BD
:101470009C8101969C838B832B813C818D819E81F5
:1014800028173907B0F226960FB6F894DEBF0FBEC4
:10149000CDBFCF91DF910895DF93CF93CDB7DEB766
:1014A000AEE4B0E0EEE4F0E080818E7F8C93AEE4B9
:1014B000B0E0EEE4F0E0808182608C93AEE4B0E0D6
:1014C000EEE4F0E080818B7F8C93AFE4B0E0EFE45A
:1014D000F0E0808180688C93AFE4B0E0EFE4F0E06E
:1014E00080818F7B8C93AFE4B0E0EFE4F0E080810B
:1014F0008E7F8C93AFE4B0E0EFE4F0E08081826017
:101500008C93AEE4B0E0EEE4F0E0808188608C93F0
:10151000AEE4B0E0EEE4F0E0808180618C93CF91A6
:10152000DF910895DF93CF9300D0CDB7DEB79A83D4
:101530008983E6E4F0E089819A81918380830F902A
:101540000F90CF91DF910895DF93CF9300D0CDB767
:10155000DEB79A838983EAE4F0E089819A819183F6
:1015600080830F900F90CF91DF910895DF93CF93F9
:10157000CDB7DEB7A5E4B0E0E5E4F0E080818064BB
:101580008C93A5E4B0E0E5E4F0E0808188608C9382
:10159000A5E4B0E0E5E4F0E0808180628C93A5E40E
:1015A000B0E0E5E4F0E080818F7E8C93A5E4B0E0CC
:1015B000E5E4F0E0808182608C93A5E4B0E0E5E4AE
:1015C000F0E080818E7F8C93A5E4B0E0E5E4F0E06C
:1015D00080818B7F8C93CF91DF910895DF93CF93A0
:1015E0000F92CDB7DEB78983E3E4F0E08981808391
:1015F0000F90CF91DF910895DF93CF9300D000D06B
:1016000000D0CDB7DEB79E838D838AEF0E94EE0AAD
:101610001C821B821EC01A82198211C0E8E5F0E00C
:1016200080818823DCF7A8E5B0E0E8E5F0E0808180
:1016300080688C9389819A8101969A8389838981B4
:101640009A818430910550F38B819C8101969C8313
:101650008B832B813C818D819E8128173907D8F29D
:1016600026960FB6F894DEBF0FBECDBFCF91DF91A7
:101670000895DF93CF9300D0CDB7DEB79A838983E7
:10168000ECE4F0E089819A81918380830F900F9040
:10169000CF91DF910895DF93CF93CDB7DEB7ECE420
:1016A000F0E080819181CF91DF9108951F920F9298
:1016B0000FB60F9211242F933F934F935F936F9325
:1016C0007F938F939F93AF93BF93EF93FF93DF939A
:1016D000CF93CDB7DEB78091C3019091C40101963D
:1016E0009093C4018093C3018091C3019091C40180
:1016F0002FE083349207A9F49091C20180E060E06A
:10170000492F0E948E0E9091C20181E0892780931B
:10171000C2011092C4011092C301E2E5F0E080EC36
:101720008083CF91DF91FF91EF91BF91AF919F9116
:101730008F917F916F915F914F913F912F910F907A
:101740000FBE0F901F9018951F920F920FB60F9219
:1017500011242F933F934F935F936F937F938F93B6
:101760009F93AF93BF93EF93FF93DF93CF93CDB747
:10177000DEB78091C6019091C70101969093C70191
:101780008093C6018091C6019091C7012FE0803AF5
:10179000920789F49091C50180E060E0492F0E9492
:1017A0008E0E9091C50181E089278093C50110922A
:1017B000C7011092C601CF91DF91FF91EF91BF91C8
:1017C000AF919F918F917F916F915F914F913F91D9
:1017D0002F910F900FBE0F901F901895DF93CF930E
:1017E000CDB7DEB7A8E5B0E0E8E5F0E08081806243
:1017F0008C93CF91DF910895DF93CF9300D00F9218
:10180000CDB7DEB789838981282F30E03B832A83D7
:101810008A819B81009769F02A813B8121303105C3
:1018200079F4AEE4B0E0EEE4F0E080818F7B8C935D
:1018300007C0AEE4B0E0EEE4F0E0808180648C9319
:101840000F900F900F90CF91DF910895DF93CF937A
:1018500000D0CDB7DEB79A83898389819A8190932E
:10186000C1018093C0010F900F90CF91DF91089537
:10187000DF93CF93CDB7DEB7E6E4F0E080819181CE
:10188000CF91DF910895DF93CF9300D00F92CDB722
:10189000DEB789838981282F30E03B832A838A81C0
:1018A0009B81009731F02A813B812130310549F03D
:1018B0000FC0A9E5B0E0E9E5F0E0808180628C939B
:1018C00007C0A9E5B0E0E9E5F0E080818F7D8C9369
:1018D0000F900F900F90CF91DF9108951F920F926C
:1018E0000FB60F9211242F933F934F935F936F93F3
:1018F0007F938F939F93AF93BF93EF93FF93DF9368
:10190000CF93CDB7DEB78091C0019091C101009710
:1019100029F0E091C001F091C1010995CF91DF91CB
:10192000FF91EF91BF91AF919F918F917F916F91B7
:101930005F914F913F912F910F900FBE0F901F908D
:101940001895DF93CF93CDB7DEB7AFE5B0E0EFE505
:10195000F0E0808180688C93CF91DF910895DF93D0
:10196000CF93CDB7DEB7AFE5B0E0EFE5F0E0808133
:101970008F778C93CF91DF910895DF93CF93CDB77D
:10198000DEB7ABE5B0E0EBE5F0E0808180648C93FE
:10199000ABE5B0E0EBE5F0E0808180688C93A5E5F5
:1019A000B0E0E5E5F0E0808181608C93A5E5B0E0F2
:1019B000E5E5F0E080818D7F8C93A5E5B0E0E5E57D
:1019C000F0E0808184608C93A5E5B0E0E5E5F0E08F
:1019D0008081877F8C93CF91DF910895DF93CF93A0
:1019E00000D0CDB7DEB79A83898389819A8190939D
:1019F000C9018093C8010F900F90CF91DF91089596
:101A0000DF93CF9300D0CDB7DEB79A8389838981E6
:101A10009A819093CB018093CA010F900F90CF9140
:101A2000DF9108951F920F920FB60F9211242F93FA
:101A30003F934F935F936F937F938F939F93AF9356
:101A4000BF93EF93FF93DF93CF93CDB7DEB7809132
:101A5000C8019091C901009729F0E091C801F09167
:101A6000C9010995CF91DF91FF91EF91BF91AF919E
:101A70009F918F917F916F915F914F913F912F91A6
:101A80000F900FBE0F901F9018951F920F920FB6D8
:101A90000F9211242F933F934F935F936F937F93F4
:101AA0008F939F93AF93BF93EF93FF93DF93CF9366
:101AB000CDB7DEB78091CA019091CB01009729F094
:101AC000E091CA01F091CB010995CF91DF91FF918F
:101AD000EF91BF91AF919F918F917F916F915F91A6
:101AE0004F913F912F910F900FBE0F901F9018951F
:101AF000DF93CF93CDB7DEB72D970FB6F894DEBF47
:101B00000FBECDBF89836A834B838981282F30E044
:101B10003D872C878C859D858130910509F44FC0C8
:101B20002C853D85223031052CF48C859D850097D0
:101B300071F0EBC02C853D852230310509F477C06A
:101B40008C859D858330910509F4A9C0DEC08B8109
:101B5000282F30E03B872A878A859B850097D1F024
:101B60002A853B852130310509F0CFC0AAE3B0E0DA
:101B7000EAE3F0E08081482F8A81282F30E081E07D
:101B800090E0022E02C0880F991F0A94E2F7842B7E
:101B90008C93BBC0AAE3B0E0EAE3F0E08081482F79
:101BA0008A81282F30E081E090E0022E02C0880F69
:101BB000991F0A94E2F7809584238C93A6C08B81A9
:101BC000282F30E039872887888599850097D1F0BC
:101BD000288539852130310509F097C0A7E3B0E0A9
:101BE000E7E3F0E08081482F8A81282F30E081E010
:101BF00090E0022E02C0880F991F0A94E2F7842B0E
:101C00008C9383C0A7E3B0E0E7E3F0E08081482F46
:101C10008A81282F30E081E090E0022E02C0880FF8
:101C2000991F0A94E2F7809584238C936EC08B8170
:101C3000282F30E03F832E838E819F810097D1F043
:101C40002E813F812130310509F05FC0A4E3B0E06F
:101C5000E4E3F0E08081482F8A81282F30E081E0A2
:101C600090E0022E02C0880F991F0A94E2F7842B9D
:101C70008C934BC0A4E3B0E0E4E3F0E08081482F14
:101C80008A81282F30E081E090E0022E02C0880F88
:101C9000991F0A94E2F7809584238C9336C08B8138
:101CA000282F30E03D832C838C819D810097C9F0E3
:101CB0002C813D812130310541F5A1E3B0E0E1E324
:101CC000F0E08081482F8A81282F30E081E090E089
:101CD000022E02C0880F991F0A94E2F7842B8C937E
:101CE00014C0A1E3B0E0E1E3F0E08081482F8A81F5
:101CF000282F30E081E090E0022E02C0880F991F6B
:101D00000A94E2F7809584238C932D960FB6F8946D
:101D1000DEBF0FBECDBFCF91DF910895DF93CF938C
:101D2000CDB7DEB72D970FB6F894DEBF0FBECDBF8F
:101D300089836A834B838981282F30E03D872C87F4
:101D40008C859D858130910509F44FC02C853D859A
:101D5000223031052CF48C859D85009771F0EBC005
:101D60002C853D852230310509F477C08C859D8511
:101D70008330910509F4A9C0DEC08B81282F30E0A3
:101D80003B872A878A859B850097D1F02A853B85EA
:101D90002130310509F0CFC0ABE3B0E0EBE3F0E078
:101DA0008081482F8A81282F30E081E090E0022E48
:101DB00002C0880F991F0A94E2F7842B8C93BBC052
:101DC000ABE3B0E0EBE3F0E08081482F8A81282F7D
:101DD00030E081E090E0022E02C0880F991F0A9443
:101DE000E2F7809584238C93A6C08B81282F30E066
:101DF00039872887888599850097D1F02885398586
:101E00002130310509F097C0A8E3B0E0E8E3F0E045
:101E10008081482F8A81282F30E081E090E0022ED7
:101E200002C0880F991F0A94E2F7842B8C9383C019
:101E3000A8E3B0E0E8E3F0E08081482F8A81282F12
:101E400030E081E090E0022E02C0880F991F0A94D2
:101E5000E2F7809584238C936EC08B81282F30E02D
:101E60003F832E838E819F810097D1F02E813F8109
:101E70002130310509F05FC0A5E3B0E0E5E3F0E013
:101E80008081482F8A81282F30E081E090E0022E67
:101E900002C0880F991F0A94E2F7842B8C934BC0E1
:101EA000A5E3B0E0E5E3F0E08081482F8A81282FA8
:101EB00030E081E090E0022E02C0880F991F0A9462
:101EC000E2F7809584238C9336C08B81282F30E0F5
:101ED0003D832C838C819D810097C9F02C813D81AD
:101EE0002130310541F5A2E3B0E0E2E3F0E080818A
:101EF000482F8A81282F30E081E090E0022E02C036
:101F0000880F991F0A94E2F7842B8C9314C0A2E3E4
:101F1000B0E0E2E3F0E08081482F8A81282F30E0B2
:101F200081E090E0022E02C0880F991F0A94E2F728
:101F3000809584238C932D960FB6F894DEBF0FBE48
:101F4000CDBFCF91DF910895DF93CF9300D000D024
:101F50000F92CDB7DEB78A836B838A81282F30E05A
:101F60003D832C834C815D814130510541F18C8151
:101F70009D818230910534F42C813D8121153105FC
:101F800061F052C04C815D814230510551F18C812C
:101F90009D8183309105B9F147C0E9E3F0E080818C
:101FA000282F30E08B81882F90E0A90102C0559541
:101FB00047958A95E2F7CA018170898335C0E6E3C7
:101FC000F0E08081282F30E08B81882F90E0A901FC
:101FD00002C0559547958A95E2F7CA0181708983B9
:101FE00023C0E3E3F0E08081282F30E08B81882F4D
:101FF00090E0A90102C0559547958A95E2F7CA017C
:102000008170898311C0E0E3F0E08081282F30E007
:102010008B81882F90E0A90102C0559547958A953C
:10202000E2F7CA018170898389810F900F900F9028
:102030000F900F90CF91DF910895DF93CF9300D051
:1020400000D0CDB7DEB789836A838981282F30E03D
:102050003C832B838B819C8181309105D1F02B8136
:102060003C81223031052CF48B819C81009761F0FA
:102070001EC02B813C812230310581F08B819C81F7
:102080008330910581F013C0EAE3F0E08A81808318
:102090000EC0E7E3F0E08A81808309C0E4E3F0E06A
:1020A0008A81808304C0E1E3F0E08A8180830F901D
:1020B0000F900F900F90CF91DF910895DF93CF9302
:1020C00000D000D0CDB7DEB789836A838981282FFD
:1020D00030E03C832B838B819C8181309105D1F052
:1020E0002B813C81223031052CF48B819C8100971F
:1020F00061F01EC02B813C812230310581F08B8143
:102100009C818330910581F013C0EBE3F0E08A817C
:1021100080830EC0E8E3F0E08A81808309C0E5E3B4
:10212000F0E08A81808304C0E2E3F0E08A8180836A
:102130000F900F900F900F90CF91DF910895DF9344
:10214000CF93CDB7DEB7A7E2B0E0E7E2F0E0808161
:1021500080648C93A7E2B0E0E7E2F0E080818F77C3
:102160008C93A7E2B0E0E7E2F0E0808180628C939C
:10217000A6E2B0E0E6E2F0E080818E7F8C93A6E2FA
:10218000B0E0E6E2F0E0808182608C93A6E2B0E00D
:10219000E6E2F0E0808184608C93A6E2B0E0E6E2C3
:1021A000F0E0808180688C93CF91DF910895DF9378
:1021B000CF930F92CDB7DEB78983A7E2B0E0E7E215
:1021C000F0E08081807E8C93A7E2B0E0E7E2F0E06F
:1021D00090818981892B8C93A6E2B0E0E6E2F0E061
:1021E000808180648C93E6E2F0E0808182958F703C
:1021F000882F90E0817090700097A9F3A6E2B0E07C
:10220000E6E2F0E0808180618C93E5E2F0E080819D
:102210000F90CF91DF910895DF93CF930F92CDB7B9
:10222000DEB78983A1E3B0E0E1E3F0E0808180687C
:102230008C93A5E4B0E0E5E4F0E080818A668C93BD
:10224000E3E4F0E089EF8083A9E5B0E0E9E5F0E0C0
:10225000808180648C93A5E4B0E0E5E4F0E08081C7
:1022600082608C930F90CF91DF910895DF93CF938D
:1022700000D00F92CDB7DEB78B838B81282F30E053
:1022800088EE93E0AC01249FC001259F900D349F00
:10229000900D112424EB30E0B9010E941922CB01EA
:1022A00088519C4F9A838983E3E4F0E089819A8185
:1022B000880F991F880F991F880F991F28EE33E008
:1022C000B9010E940522CB0180830F900F900F90DF
:1022D000CF91DF9108950F931F93DF93CF93CDB7E5
:1022E000DEB7C654D0400FB6F894DEBF0FBECDBFE8
:1022F00081E060E041E00E94780D81E061E041E032
:102300000E94780D81E062E041E00E94780D80E05B
:1023100061E00E941D10FE01ED5BFF4F80E090E048
:10232000A8E4B2E480839183A283B3838E01015C2D
:102330001F4FFE01ED5BFF4F6081718182819381B0
:1023400020E030E04AEF54E40E941F02DC01CB01A0
:10235000F80180839183A283B383FE01FF9660819D
:1023600071818281938120E030E040E85FE30E9448
:10237000250488232CF481E090E09EAF8DAF46C009
:10238000FE01FF96608171818281938120E03FEFA1
:102390004FE757E40E94C503181664F5FE01ED5B94
:1023A000FF4F608171818281938120E030E040E2C3
:1023B00051E40E941F02DC01CB01BC01CD010E944F
:1023C0004900DC01CB019EAF8DAF0FC088EC90E0DF
:1023D0009CAF8BAF8BAD9CAD0197F1F79CAF8BAFF2
:1023E0008DAD9EAD01979EAF8DAF8DAD9EAD00972B
:1023F00069F716C0FE01FF96608171818281938129
:102400000E944900DC01CB019EAF8DAF8DAD9EAD2A
:102410009AAF89AF89AD9AAD0197F1F79AAF89AFBD
:1024200088E30E942E1580E090E0A0E8BFE38DAB2A
:102430009EABAFABB8AF6DA97EA98FA998AD20E0D8
:1024400030E04AEF54E40E941F02DC01CB0189AB6B
:102450009AABABABBCAB69A97AA98BA99CA920E0CC
:1024600030E040E85FE30E94250488232CF481E0FB
:1024700090E098AB8FA73FC069A97AA98BA99CA9C6
:1024800020E03FEF4FE757E40E94C50318164CF5D4
:102490006DA97EA98FA998AD20E030E040E251E41B
:1024A0000E941F02DC01CB01BC01CD010E9449004A
:1024B000DC01CB0198AB8FA70FC088EC90E09EA702
:1024C0008DA78DA59EA50197F1F79EA78DA78FA536
:1024D00098A9019798AB8FA78FA598A9009769F73E
:1024E00014C069A97AA98BA99CA90E944900DC01A2
:1024F000CB0198AB8FA78FA598A99CA78BA78BA57D
:102500009CA50197F1F79CA78BA78CE00E942E1544
:1025100080E090E0A0E8BFE38FA398A7A9A7BAA79F
:102520006FA178A589A59AA520E030E04AEF54E490
:102530000E941F02DC01CB018BA39CA3ADA3BEA311
:102540006BA17CA18DA19EA120E030E040E85FE37B
:102550000E94250488232CF481E090E09AA389A3AB
:102560003FC06BA17CA18DA19EA120E03FEF4FE772
:1025700057E40E94C50318164CF56FA178A589A5EC
:102580009AA520E030E040E251E40E941F02DC0105
:10259000CB01BC01CD010E944900DC01CB019AA313
:1025A00089A30FC088EC90E098A38F8F8F8D98A19E
:1025B0000197F1F798A38F8F89A19AA101979AA308
:1025C00089A389A19AA1009769F714C06BA17CA186
:1025D0008DA19EA10E944900DC01CB019AA389A391
:1025E00089A19AA19E8F8D8F8D8D9E8D0197F1F778
:1025F0009E8F8D8F81E00E942E1580E090E0A0E0FC
:10260000B0E4898F9A8FAB8FBC8F698D7A8D8B8D5B
:102610009C8D20E030E04AEF54E40E941F02DC0170
:10262000CB018D8B9E8BAF8BB88F6D897E898F8907
:10263000988D20E030E040E85FE30E942504882385
:102640002CF481E090E09C8B8B8B3FC06D897E8960
:102650008F89988D20E03FEF4FE757E40E94C50334
:1026600018164CF5698D7A8D8B8D9C8D20E030E0AD
:1026700040E251E40E941F02DC01CB01BC01CD010C
:102680000E944900DC01CB019C8B8B8B0FC088EC36
:1026900090E09A8B898B89899A890197F1F79A8BB7
:1026A000898B8B899C8901979C8B8B8B8B899C89CF
:1026B000009769F714C06D897E898F89988D0E9473
:1026C0004900DC01CB019C8B8B8B8B899C89988B7F
:1026D0008F878F8598890197F1F7988B8F8786E090
:1026E0000E942E1580E090E0A0E8BFE38B879C87D6
:1026F000AD87BE876B857C858D859E8520E030E02B
:102700004AEF54E40E941F02DC01CB018F839887BB
:10271000A987BA876F81788589859A8520E030E01E
:1027200040E85FE30E94250488232CF481E090E0D8
:102730009E838D833FC06F81788589859A8520E04F
:102740003FEF4FE757E40E94C50318164CF56B8521
:102750007C858D859E8520E030E040E251E40E943A
:102760001F02DC01CB01BC01CD010E944900DC014C
:10277000CB019E838D830FC088EC90E09C838B837C
:102780008B819C810197F1F79C838B838D819E8146
:1027900001979E838D838D819E81009769F714C078
:1027A0006F81788589859A850E944900DC01CB017B
:1027B0009E838D838D819E819A83898389819A816D
:1027C0000197F1F79A838983CA5BDF4F0FB6F894BC
:1027D000DEBF0FBECDBFCF91DF911F910F91089546
:1027E000DF93CF93CDB7DEB72E970FB6F894DEBF49
:1027F0000FBECDBF81E00E942E1580E090E0A0E0EA
:10280000B0E48B879C87AD87BE876B857C858D8583
:102810009E8520E030E04AEF54E40E941F02DC0174
:10282000CB018F839887A987BA876F81788589853F
:102830009A8520E030E040E85FE30E942504882389
:102840002CF481E090E09E838D833FC06F8178857A
:1028500089859A8520E03FEF4FE757E40E94C50342
:1028600018164CF56B857C858D859E8520E030E0C3
:1028700040E251E40E941F02DC01CB01BC01CD010A
:102880000E944900DC01CB019E838D830FC088EC40
:1028900090E09C838B838B819C810197F1F79C83D3
:1028A0008B838D819E8101979E838D838D819E81F7
:1028B000009769F714C06F81788589859A850E9491
:1028C0004900DC01CB019E838D838D819E819A839B
:1028D000898389819A810197F1F79A8389832E965A
:1028E0000FB6F894DEBF0FBECDBFCF91DF91089534
:1028F000DF93CF93CDB7DEB760970FB6F894DEBF06
:102900000FBECDBF888B81E060E041E00E948E0E5B
:1029100081E061E040E00E948E0E1F8617C088892A
:10292000282F30E08F85882F90E0A90102C05595AF
:1029300047958A95E2F7CA01982F917080E06F85DC
:10294000492F0E948E0E8F858F5F8F878F858830ED
:1029500030F381E062E041E00E948E0E80E090E082
:10296000A0E0B0E48B879C87AD87BE876B857C85B4
:102970008D859E8520E030E04AEF54E40E941F02DE
:10298000DC01CB018F839887A987BA876F8178850F
:1029900089859A8520E030E040E85FE30E942504C5
:1029A00088232CF481E090E09E838D833FC06F816B
:1029B000788589859A8520E03FEF4FE757E40E94AC
:1029C000C50318164CF56B857C858D859E8520E0AA
:1029D00030E040E251E40E941F02DC01CB01BC0167
:1029E000CD010E944900DC01CB019E838D830FC085
:1029F00088EC90E09C838B838B819C810197F1F71D
:102A00009C838B838D819E8101979E838D838D8195
:102A10009E81009769F714C06F81788589859A85B2
:102A20000E944900DC01CB019E838D838D819E81B4
:102A30009A83898389819A810197F1F79A8389839F
:102A400081E062E040E00E948E0E60960FB6F8943E
:102A5000DEBF0FBECDBFCF91DF910895DF93CF933F
:102A6000CDB7DEB760970FB6F894DEBF0FBECDBF0F
:102A7000888B81E060E040E00E948E0E81E061E0A2
:102A800040E00E948E0E1F8617C08889282F30E0F4
:102A90008F85882F90E0A90102C0559547958A95AA
:102AA000E2F7CA01982F917080E06F85492F0E944C
:102AB0008E0E8F858F5F8F878F85883030F381E012
:102AC00062E041E00E948E0E80E090E0A0E0B0E481
:102AD0008B879C87AD87BE876B857C858D859E8522
:102AE00020E030E04AEF54E40E941F02DC01CB01F9
:102AF0008F839887A987BA876F81788589859A851A
:102B000020E030E040E85FE30E94250488232CF4B5
:102B100081E090E09E838D833FC06F8178858985B9
:102B20009A8520E03FEF4FE757E40E94C50318164F
:102B30004CF56B857C858D859E8520E030E040E2FC
:102B400051E40E941F02DC01CB01BC01CD010E94B7
:102B50004900DC01CB019E838D830FC088EC90E09F
:102B60009C838B838B819C810197F1F79C838B8362
:102B70008D819E8101979E838D838D819E8100979B
:102B800069F714C06F81788589859A850E9449000C
:102B9000DC01CB019E838D838D819E819A83898305
:102BA00089819A810197F1F79A83898381E062E0B4
:102BB00040E00E948E0E60960FB6F894DEBF0FBE06
:102BC000CDBFCF91DF910895DF93CF9300D00F92C7
:102BD000CDB7DEB79B838A8319820EC08981282FE7
:102BE00030E08A819B81FC01E20FF31F80810E940B
:102BF000781489818F5F89838981282F30E08A81C9
:102C00009B81FC01E20FF31F8081882339F70F902D
:102C10000F900F90CF91DF910895DF93CF93CDB7B1
:102C2000DEB72E970FB6F894DEBF0FBECDBF9E87DE
:102C30008D878D859E85992374F481E060E00E94E4
:102C400078168DE20E9478148D859E8590958195E9
:102C50009F4F9E878D878D859E85009721F480E309
:102C60000E9478143CC01A821EC08A81E82FF0E0CE
:102C70008D859E852AE030E0B9010E941922282F17
:102C8000205DCE010396E80FF91F20838D859E8578
:102C90002AE030E0B9010E941922CB019E878D877E
:102CA0008A818F5F8A838D859E8518161906ECF2BE
:102CB0008A81898311C08981882F90E09C012150ED
:102CC0003040CE010396FC01E20FF31F80810E9489
:102CD00078148981815089838981882361F72E96B0
:102CE0000FB6F894DEBF0FBECDBFCF91DF91089530
:102CF000DF93CF9300D00F92CDB7DEB78A836B837B
:102D000019828A81882319F48B81898306C08A817C
:102D1000813019F48B81805C898389818068898303
:102D200089810E942E150F900F900F90CF91DF9107
:102D30000895DF93CF9300D000D0CDB7DEB78A835C
:102D40007C836B838A818830F8F48A81882F90E0B5
:102D50000896880F991F880F991F880F991F0E9446
:102D60002E1519820EC08981282F30E08B819C811D
:102D7000FC01E20FF31F80810E94781489818F5F2C
:102D800089838981883078F30F900F900F900F908E
:102D9000CF91DF910895DF93CF93CDB7DEB7AF9793
:102DA0000FB6F894DEBF0FBECDBFCE0101969AA339
:102DB00089A3ADE8B1E0BCA3ABA3B8E0BDA3EBA190
:102DC000FCA100808BA19CA101969CA38BA3A9A12F
:102DD000BAA10C92E9A1FAA13196FAA3E9A3FDA147
:102DE000F150FDA38DA1882351F7DE011996BFA3F1
:102DF000AEA3E5E8F1E0F9A7E8A7F8E0FAA7A8A5EF
:102E0000B9A50C90E8A5F9A53196F9A7E8A7AEA158
:102E1000BFA10C92EEA1FFA13196FFA3EEA3FAA5EC
:102E2000F150FAA78AA5882351F7DE015196BCA775
:102E3000ABA7EDE7F1E0FEA7EDA7F8E0FFA7ADA592
:102E4000BEA50C90EDA5FEA53196FEA7EDA7ABA5FE
:102E5000BCA50C92EBA5FCA53196FCA7EBA7FFA5A2
:102E6000F150FFA78FA5882351F788E0FE017996DE
:102E7000DF01982F1D929A95E9F78FE18C8F9E01C3
:102E80002F5E3F4F80E0B9010E9499169E01275F97
:102E90003F4F81E0B9010E94991682E09E012F5FA9
:102EA0003F4FB9010E9499169E01275E3F4F83E074
:102EB000B9010E949916AF960FB6F894DEBF0FBE07
:102EC000CDBFCF91DF910895DF93CF9300D0CDB7E1
:102ED000DEB789836A838A8164E040E00E94780DCE
:102EE0008A8165E040E00E94780D8A8166E040E0DA
:102EF0000E94780D8A8167E040E00E94780D8A8107
:102F000064E041E00E948E0E8A8165E041E00E940B
:102F10008E0E8A8166E041E00E948E0E8A8167E013
:102F200041E00E948E0E898160E041E00E94780DB0
:102F3000898161E041E00E94780D898162E041E091
:102F40000E94780D898160E041E00E948E0E8981A7
:102F500061E041E00E948E0E898162E041E00E94C2
:102F60008E0E0F900F90CF91DF910895DF93CF9346
:102F7000CDB7DEB7A3970FB6F894DEBF0FBECDBFB7
:102F8000888F698F8AEA8C83CE0105969B8F8A8F02
:102F9000E1EAF1E0FD8FEC8FF3E0FE8FEC8DFD8D2B
:102FA00000808C8D9D8D01969D8F8C8FEA8DFB8D81
:102FB00000828A8D9B8D01969B8F8A8F9E8D91506A
:102FC0009E8FEE8DEE2351F784E0888785E0898718
:102FD00086E08A8787E08B87CE010C9698A38F8F37
:102FE000E5E9F1E0FAA3E9A3FCE0FBA3E9A1FAA17A
:102FF000008089A19AA101969AA389A3EF8DF8A1D7
:1030000000828F8D98A1019698A38F8F9BA19150DC
:103010009BA3EBA1EE2351F71B826BC08B81282F62
:1030200030E0CE010596FC01E20FF31F9081888D00
:10303000692F40E00E948E0E1A8246C08A81282F96
:1030400030E0CE010896FC01E20FF31F9081898DDC
:10305000692F0E94A40F89838981882391F58A8131
:10306000282F30E08B81482F50E0C901880F991F2D
:10307000820F931F9E012F5F3F4F820F931F840F7C
:10308000951FFC013B9680818C830EC08A81282F7E
:1030900030E0CE010896FC01E20FF31F9081898D8C
:1030A000692F0E94A40F89838981882379F38C81F9
:1030B000A3960FB6F894DEBF0FBECDBFCF91DF91C0
:1030C00008958A818F5F8A838A81843008F4B6CF1D
:1030D0008B81282F30E0CE010596FC01E20FF31F13
:1030E0009081888D692F41E00E948E0E8B818F5FC9
:1030F0008B838B81833008F491CF8ECFDF93CF9376
:1031000000D00F92CDB7DEB789837B836A830E949C
:103110005E088A819B81892F992780650E94B20869
:103120008A810E94220989810E9422090E948109C4
:103130000F900F900F90CF91DF910895DF93CF9371
:1031400000D000D0CDB7DEB79A8389837C836B83B0
:103150000E945E088B819C81892F992780650E943F
:10316000B2088B810E9422090E9488088B819C8171
:10317000892F992780650E94EA0889819A810E9497
:103180004B090E9481090F900F900F900F90CF91E3
:10319000DF910895DF93CF9300D0CDB7DEB7898359
:1031A0006A838A8160E040E00E94780D8A8161E054
:1031B00040E00E94780D8A8162E040E00E94780D34
:1031C0008A8163E040E00E94780D8A8160E041E0FE
:1031D0000E948E0E8A8161E041E00E948E0E8A81FB
:1031E00062E041E00E948E0E8A8163E041E00E942D
:1031F0008E0E898164E041E00E94780D898165E04E
:1032000041E00E94780D898166E041E00E94780DDE
:10321000898167E041E00E94780D898164E041E0A6
:103220000E948E0E898165E041E00E948E0E8981A8
:1032300066E041E00E948E0E898167E041E00E94D5
:103240008E0E0F900F90CF91DF910895DF93CF9363
:10325000CDB7DEB7A3970FB6F894DEBF0FBECDBFD4
:103260008D8F6E8F8AEA8C8384E08D8385E08E83D8
:1032700086E08F8387E08887198681E08A8782E0ED
:103280008B8783E08C87CE010D9698A38F8FE4EA1D
:10329000F1E0FAA3E9A3F0E1FBA3E9A1FAA1008020
:1032A00089A19AA101969AA389A3EF8DF8A1008222
:1032B0008F8D98A1019698A38F8F9BA191509BA36E
:1032C000EBA1EE2351F71B8269C08B81282F30E0E0
:1032D000CE010596FC01E20FF31F90818D8D692FC1
:1032E00040E00E948E0E1A8244C08A81282F30E06E
:1032F000CE010996FC01E20FF31F90818E8D692F9C
:103300000E94A40F89838981882381F58A81282FCF
:1033100030E08B81482F50E0220F331F220F331FE4
:10332000CE010196820F931F840F951FFC013C96DE
:1033300080818C830EC08A81282F30E0CE010996CF
:10334000FC01E20FF31F90818E8D692F0E94A40F64
:1033500089838981882379F38C81A3960FB6F894A9
:10336000DEBF0FBECDBFCF91DF9108958A818F5F01
:103370008A838A81843008F4B8CF8B81282F30E08B
:10338000CE010596FC01E20FF31F90818D8D692F10
:1033900041E00E948E0E8B818F5F8B838B81843006
:1033A00008F493CF90CFDF93CF9300D0CDB7DEB7A3
:1033B00082E590E00E9463229A83898389819A81C1
:1033C000FC01E05BFF4F1182108289819A810F908E
:1033D0000F90CF91DF910895DF93CF9300D000D06D
:1033E000CDB7DEB79A83898389819A81FC01E05B3E
:1033F000FF4F80819181009729F481E090E09C83C8
:103400008B8302C01C821B828B819C810F900F904A
:103410000F900F90CF91DF910895DF93CF9300D05D
:10342000CDB7DEB79A83898389819A81FC01E05BFD
:10343000FF4F80819181019729813A81880F991FDF
:10344000880F991FF901E80FF91F80819181A281EE
:10345000B381BC01CD010F900F90CF91DF91089502
:10346000DF93CF9300D000D000D0CDB7DEB79E83DE
:103470008D838D819E81FC01E05BFF4F8081918176
:103480009C01215030408D819E81FC01E05BFF4F0B
:10349000318320838D819E81FC01E05BFF4F808121
:1034A00091812D813E81880F991F880F991FF90105
:1034B000E80FF91F80819181A281B38189839A836A
:1034C000AB83BC8389819A81AB81BC81BC01CD0176
:1034D00026960FB6F894DEBF0FBECDBFCF91DF9119
:1034E0000895DF93CF9300D000D000D0CDB7DEB7E2
:1034F0009A8389834B835C836D837E8389819A81E0
:10350000FC01E05BFF4F8081918129813A81880F26
:10351000991F880F991FF901E80FF91F8B819C8172
:10352000AD81BE8180839183A283B38389819A8197
:10353000FC01E05BFF4F808191819C012F5F3F4F39
:1035400089819A81FC01E05BFF4F318320832696BD
:103550000FB6F894DEBF0FBECDBFCF91DF910895B7
:10356000DF93CF9300D00F92CDB7DEB789838981E7
:103570008A3231F089818F3219F08981853229F4BC
:1035800081E090E09B838A8315C089818B3219F09A
:1035900089818D3219F41B821A820CC089818E3583
:1035A00029F482E090E09B838A8304C083E090E06A
:1035B0009B838A838A819B810F900F900F90CF917C
:1035C000DF9108950F931F93DF93CF93CDB7DEB7AD
:1035D0002C970FB6F894DEBF0FBECDBF9A878987B0
:1035E0007C876B870E94D3199C838B8389859A85FE
:1035F00020E630E0B9010E9486239A83898327C19F
:10360000E981FA818081882F90E0C0978A30910506
:1036100060F0E981FA8180818D3221F589819A817A
:103620000E949F2382309105E8F089819A810E944F
:103630009F23AC018B859C8529813A81B9010E9429
:10364000A8238B859C850E949F239C018B859C854C
:10365000820F931F20E630E0B90142E050E00E9463
:103660008B23ECC0E981FA8180818932C1F524C0C5
:103670008B819C810E94301ADC01CB018D839E835B
:10368000AF83B8878B859C859E012B5F3F4FB90127
:1036900041E050E00E94A8238B859C850E949F23D7
:1036A0009C018B859C85820F931F20E630E0B90139
:1036B00042E050E00E948B238B819C810E94EC1998
:1036C000009741F48B819C810E940D1ADC01CB0193
:1036D000883271F68B819C810E94301AAFC08B8139
:1036E0009C810E94EC19009779F0E981FA81808130
:1036F0008D838B819C812D813E814F815885BA01BC
:10370000A9010E94711A9AC08B819C810E94EC19B8
:10371000009741F58B819C810E940D1ADC01CB0141
:103720000E94B01A8C01E981FA8180810E94B01A4E
:103730000817190744F08B819C810E940D1ADC0147
:10374000CB01883279F4E981FA8180818D838B8184
:103750009C812D813E814F815885BA01A9010E942B
:10376000711A6CC08B819C810E94EC19009709F042
:1037700065C08B819C810E940D1ADC01CB010E94E7
:10378000B01A8C01E981FA8180810E94B01A081771
:1037900019070CF453C08B819C810E940D1ADC0127
:1037A000CB01883209F44AC024C08B819C810E94DD
:1037B000301ADC01CB018D839E83AF83B8878B8564
:1037C0009C859E012B5F3F4FB90141E050E00E9474
:1037D000A8238B859C850E949F239C018B859C85BB
:1037E000820F931F20E630E0B90142E050E00E94D2
:1037F0008B238B819C810E94EC19009789F48B812B
:103800009C810E940D1ADC01CB010E94B01A8C0130
:10381000E981FA8180810E94B01A081719072CF6F5
:10382000E981FA8180818D838B819C812D813E810C
:103830004F815885BA01A9010E94711A20E630E033
:1038400080E090E0B9010E9486239A838983898170
:103850009A81009709F0D4CE24C08B819C810E946C
:10386000301ADC01CB018D839E83AF83B8878B85B3
:103870009C859E012B5F3F4FB90141E050E00E94C3
:10388000A8238B859C850E949F239C018B859C850A
:10389000820F931F20E630E0B90142E050E00E9421
:1038A0008B238B819C810E94EC190097B1F22C969E
:1038B0000FB6F894DEBF0FBECDBFCF91DF911F9141
:1038C0000F9108950F931F93DF93CF93CDB7DEB77A
:1038D0002E970FB6F894DEBF0FBECDBF9E838D83AB
:1038E0004F83588769877A870B871C872D873E8788
:1038F0008D819E816AE270E00E949423009789F096
:103900006B857C858D859E852F81388549855A8577
:103910000E941F02DC01CB0189839A83AB83BC83A5
:103920004AC08D819E816BE270E00E9494230097D3
:1039300089F06B857C858D859E852F8138854985AD
:103940005A850E94F201DC01CB0189839A83AB8303
:10395000BC8331C08D819E816DE270E00E94942312
:10396000009789F06B857C858D859E852F813885B4
:1039700049855A850E94C101DC01CB0189839A8364
:10398000AB83BC8318C08D819E816FE270E00E9482
:103990009423009781F06B857C858D859E852F8192
:1039A000388549855A850E941903DC01CB0189833A
:1039B0009A83AB83BC8389819A81AB81BC81BC0132
:1039C000CD012E960FB6F894DEBF0FBECDBFCF91BE
:1039D000DF911F910F910895EF92FF920F931F9324
:1039E000DF93CF93CDB7DEB766970FB6F894DEBFFF
:1039F0000FBECDBF9E8B8D8B0E94D3199C838B8372
:103A00008D899E8920E630E0B9010E9486239A8341
:103A100089836FC0E981FA818081882F90E0C09707
:103A20008A30910560F0E981FA8180818D3221F53B
:103A300089819A810E949F2382309105E8F08981D3
:103A40009A810E946823AA2797FDA095BA2FBC01EE
:103A5000CD010E945504DC01CB018D839E83AF8391
:103A6000B8878B819C812D813E814F815885BA0119
:103A7000A9010E94711A34C08B819C810E94301A66
:103A8000DC01CB0189879A87AB87BC878B819C81BE
:103A90000E94301ADC01CB018D879E87AF87B88BDF
:103AA00029853A854B855C85ED84FE840F851889D0
:103AB00089819A81BA01A901980187010E94621C3B
:103AC000DC01CB01898B9A8BAB8BBC8B8B819C816E
:103AD00029893A894B895C89BA01A9010E94711A26
:103AE00020E630E080E090E0B9010E9486239A83CE
:103AF000898389819A81009709F08CCF8B819C8181
:103B00000E94301ADC01CB01BC01CD0166960FB6D4
:103B1000F894DEBF0FBECDBFCF91DF911F910F9103
:103B2000FF90EF900895DF93CF9300D000D0CDB7F2
:103B3000DEB79C838B838B819C819A83898304C0AD
:103B4000E981FA8180E2808389819A816AE070E06C
:103B50000E9494239A83898389819A81009781F7AF
:103B60000F900F900F900F90CF91DF910895DF93FA
:103B7000CF93CDB7DEB7C251D1400FB6F894DEBFB8
:103B80000FBECDBFFE01EF5EFE4F9183808380E0CC
:103B900090E0AAE7B4E48B879C87AD87BE876B85EE
:103BA0007C858D859E8520E030E04AEF54E40E94BC
:103BB0001F02DC01CB018F839887A987BA876F81A9
:103BC000788589859A8520E030E040E85FE30E94AF
:103BD000250488232CF481E090E09E838D833FC0F0
:103BE0006F81788589859A8520E03FEF4FE757E41C
:103BF0000E94C50318164CF56B857C858D859E85C6
:103C000020E030E040E251E40E941F02DC01CB01E1
:103C1000BC01CD010E944900DC01CB019E838D8354
:103C20000FC088EC90E09C838B838B819C810197F3
:103C3000F1F79C838B838D819E8101979E838D8379
:103C40008D819E81009769F714C06F817885898581
:103C50009A850E944900DC01CB019E838D838D8172
:103C60009E819A83898389819A810197F1F79A834A
:103C70008983198A1A8A1B8A1C8A8CEFFE01759621
:103C8000DF01982F1D929A95E9F7FE01EF5EFE4F36
:103C9000808191819E012F5E3F4FB9010E94E21AFF
:103CA000CE0141960E94EC1CDC01CB01BC01CD0190
:103CB0000E944900DC01CB01988B8F8781E060E096
:103CC0000E9478168F8598890E940D16CE5EDE4F71
:103CD0000FB6F894DEBF0FBECDBFCF91DF91089530
:103CE000DF93CF9300D000D000D0CDB7DEB79E8356
:103CF0008D831C821B8203C08B818F5F8B838B81A2
:103D0000282F30E08D819E81FC01E20FF31F80811E
:103D1000882391F71A821FC08A81282F30E08D8175
:103D20009E81FC01E20FF31F80818F3289F48A812A
:103D3000882F90E09C012E5F3F4F8D819E81FC017A
:103D4000E20FF31F8081803319F481E08C8307C078
:103D50008A818F5F8A839A818B819817E8F2198212
:103D600038C08981282F30E08D819E81FC01E20FCF
:103D7000F31F80818B3259F08981282F30E08D81AB
:103D80009E81FC01E20FF31F80818D32F9F489815D
:103D9000882F90E09C012E5F3F4F8D819E81FC011A
:103DA000E20FF31F80818F3271F08981882F90E0BC
:103DB0009C012E5F3F4F8D819E81FC01E20FF31F1E
:103DC00080818A3219F481E08C8307C089818F5FFA
:103DD000898399818B81981720F28B81882F90E0BD
:103DE0009C01225030408D819E81FC01E20FF31F27
:103DF00080818B3251F18B81882F90E09C01225081
:103E000030408D819E81FC01E20FF31F80818D3255
:103E1000E1F08B81882F90E09C01225030408D8111
:103E20009E81FC01E20FF31F80818A3271F08B8149
:103E3000882F90E09C01225030408D819E81FC01B2
:103E4000E20FF31F80818F3211F481E08C838C812B
:103E500026960FB6F894DEBF0FBECDBFCF91DF918F
:103E60000895DF93CF930F92CDB7DEB78983898111
:103E70006FEF0E941D100F90CF91DF910895DF9397
:103E8000CF93CDB7DEB761970FB6F894DEBF0FBE04
:103E9000CDBF8B876C87CE0101969E878D87E4EB23
:103EA000F1E0F88BEF87FAE0F98BEF85F889008075
:103EB0008F8598890196988B8F87ED85FE85008286
:103EC0008D859E8501969E878D8799899150998BC6
:103ED000E989EE2351F78C85282F30E0CE01019639
:103EE000FC01E20FF31F90818B85692F0E945E1009
:103EF00061960FB6F894DEBF0FBECDBFCF91DF91B4
:103F00000895DF93CF93CDB7DEB7CE50D2400FB632
:103F1000F894DEBF0FBECDBF0E946B110E94CB167E
:103F200082E062E00E94CA18188A1F861E861D86DB
:103F30001C8605C082E062E00E942619888B888971
:103F40008F30C1F70E94F0138FEFFE017196DF01F1
:103F5000482F1D924A95E9F71B861A86198690C14B
:103F600082E062E00E942619888B88898A3009F4F1
:103F700047C088898B3009F443C088898C3009F4A4
:103F80003FC088898D30E1F188898E30C9F18A85FA
:103F90009B859C01220F331FC901880F991F880F31
:103FA000991F280F391F8889882F90E0820F931F4F
:103FB0009B878A878A859B850097D1F48985282FDE
:103FC00030E0CE014196FC01E20FF31F80E38083D5
:103FD00089858F5F89878985282F30E0CE014196BA
:103FE000FC01E20FF31F80E2808389858F5F898760
:103FF0008889882F90E00E940D1681E08E8740C14D
:1040000088898A3051F088898B3039F088898C30E2
:1040100021F088898D3009F033C188898E3009F408
:104020002FC18E85813009F0A6C0CE01805F9E4FE2
:104030002FEFFC01DF01422F1D924A95E9F7188608
:104040001FC08885E82FF0E08A859B852AE030E054
:10405000B9010E940522282F205DCE01805F9E4F6E
:10406000E80FF91F20838A859B852AE030E0B9019B
:104070000E940522CB019B878A8788858F5F88876E
:104080008A859B850097E9F61F8241C08F81282F82
:1040900030E0CE01805F9E4FFC01E20FF31F808174
:1040A0008E838F81482F50E08885282F30E08F81C4
:1040B000882F90E0B901681B790BCB019C0121503E
:1040C0003040CE01805F9E4FFC01E20FF31F208144
:1040D000CE01805F9E4FFC01E40FF51F2083888591
:1040E000282F30E08F81882F90E0D901A81BB90BD1
:1040F000CD019C0121503040CE01805F9E4FFC01DC
:10410000E20FF31F8E8180838F818F5F8F8388857D
:10411000982F96958F81891708F4B8CF1D8219C002
:104120008985482F50E08D81282F30E0CE01805FB7
:104130009E4FFC01E20FF31F2081CE014196FC014E
:10414000E40FF51F208389858F5F89878D818F5FBD
:104150008D839D818885981718F38985282F30E0F5
:10416000CE014196FC01E20FF31F80E28083898536
:104170008F5F89871E8688898A30F1F48985282F88
:1041800030E0CE014196FC01E20FF31F8FE2808305
:1041900089858F5F89878985282F30E0CE014196F8
:1041A000FC01E20FF31F80E2808389858F5F89879E
:1041B00081E00E94781462C088898B30F1F489858F
:1041C000282F30E0CE014196FC01E20FF31F8AE276
:1041D000808389858F5F89878985282F30E0CE018C
:1041E0004196FC01E20FF31F80E2808389858F5F97
:1041F000898782E00E94781441C088898C30F1F46C
:104200008985282F30E0CE014196FC01E20FF31F93
:104210008DE2808389858F5F89878985282F30E0AB
:10422000CE014196FC01E20FF31F80E28083898575
:104230008F5F898783E00E94781420C088898D3041
:10424000E9F48985282F30E0CE014196FC01E20F88
:10425000F31F8BE2808389858F5F89878985282F6B
:1042600030E0CE014196FC01E20FF31F80E2808333
:1042700089858F5F898780E00E9478141B861A8663
:1042800088898E3009F06CCE8A859B85009709F469
:10429000A6C0CE01805F9E4F2FEFFC01DF01422FB1
:1042A0001D924A95E9F71C821FC08C81E82FF0E02F
:1042B0008A859B852AE030E0B9010E940522282FDB
:1042C000205DCE01805F9E4FE80FF91F20838A8515
:1042D0009B852AE030E0B9010E940522CB019B8733
:1042E0008A878C818F5F8C838A859B850097E9F60E
:1042F0001B8241C08B81282F30E0CE01805F9E4F12
:10430000FC01E20FF31F80818A838B81482F50E0EC
:104310008C81282F30E08B81882F90E0B901681BB9
:10432000790BCB019C0121503040CE01805F9E4F24
:10433000FC01E20FF31F2081CE01805F9E4FFC0144
:10434000E40FF51F20838C81282F30E08B81882F8C
:1043500090E0D901A81BB90BCD019C012150304040
:10436000CE01805F9E4FFC01E20FF31F8A818083A4
:104370008B818F5F8B838C81982F96958B8189178A
:1043800008F4B8CF8C81282F30E0CE01805F9E4F9B
:10439000FC01E20FF31F80E280838C818F5F8C83AE
:1043A000198219C08985482F50E08981282F30E073
:1043B000CE01805F9E4FFC01E20FF31F2081CE01F2
:1043C0004196FC01E40FF51F208389858F5F898763
:1043D00089818F5F898399818C81981718F3CE0129
:1043E00041960E94701E8D878D85882329F4CE0109
:1043F00041960E94B71DA3CD81E060E00E9478162F
:1044000082E690E00E94E4159ACDAA1BBB1B51E105
:1044100007C0AA1FBB1FA617B70710F0A61BB70B34
:10442000881F991F5A95A9F780959095BC01CD01D9
:10443000089597FB092E07260AD077FD04D0E5DF03
:1044400006D000201AF4709561957F4F0895F6F715
:10445000909581959F4F08952F923F924F925F9232
:104460006F927F928F929F92AF92BF92CF92DF9284
:10447000EF92FF920F931F93CF93DF93CDB7DEB7E9
:10448000CA1BDB0B0FB6F894DEBF0FBECDBF09947D
:104490002A88398848885F846E847D848C849B84D4
:1044A000AA84B984C884DF80EE80FD800C811B81E2
:1044B000AA81B981CE0FD11D0FB6F894DEBF0FBE11
:1044C000CDBFED010895CF93DF93BC0182309105FC
:1044D00010F462E070E0A091CE01B091CF01ED0147
:1044E000E0E0F0E040E050E021C08881998186174B
:1044F000970769F48A819B81309719F093838283AF
:1045000004C09093CF018093CE01FE0134C06817A0
:10451000790738F44115510519F08417950708F407
:10452000AC01FE018A819B819C01E9012097E9F69B
:1045300041155105A9F1CA01861B970B049708F490
:10454000BA01E0E0F0E02AC08D919C9111978417A8
:104550009507F9F46417750781F412968D919C9173
:104560001397309719F09383828304C09093CF01FF
:104570008093CE01FD0132964FC0CA01861B970B76
:10458000FD01E80FF91F6193719302978D939C933E
:1045900043C0FD01828193819C01D9011097A1F64E
:1045A0008091CC019091CD01892B41F480917901CA
:1045B00090917A019093CD018093CC0140917B0141
:1045C00050917C014115510541F44DB75EB7809182
:1045D000770190917801481B590B2091CC013091C3
:1045E000CD0124173507B0F4CA01821B930B86173F
:1045F000970780F0AB014E5F5F4F8417950750F02F
:10460000420F531F5093CD014093CC01F9016193A8
:10461000719302C0E0E0F0E0CF01DF91CF91089507
:10462000CF93DF93009709F450C0EC0122971B82CF
:104630001A82A091CE01B091CF01109709F140E00C
:1046400050E0AC17BD0708F1BB83AA83FE0121919E
:104650003191E20FF31FAE17BF0779F48D919C9152
:104660001197280F391F2E5F3F4F398328831296E9
:104670008D919C9113979B838A834115510571F409
:10468000D093CF01C093CE0120C012968D919C9102
:104690001397AD01009711F0DC01D3CFFA01D3835A
:1046A000C28321913191E20FF31FCE17DF0769F426
:1046B00088819981280F391F2E5F3F4FFA0131837E
:1046C00020838A819B8193838283DF91CF91089598
:1046D000FC0188279927E89421912032E9F32930B9
:1046E00010F02E30C8F32B3241F02D3239F468949B
:1046F00004C00E94DF23820F911D219120532A3094
:10470000C0F31EF4909581959F4F08954EEB51E0B4
:104710000E94B8230895FB01DC0102C001900D92B4
:1047200041505040D8F70895FC018191861721F03F
:104730008823D9F7992708953197CF010895FC016F
:1047400001900020E9F7809590958E0F9F1F0895A6
:10475000FB01DC010D900020E9F71197415050401A
:1047600028F0019000200D92C9F708951C92089539
:10477000FA01A191B081009719F41097E1F0CD01F1
:10478000DC01CD010D90002011F4C00113C0FB012C
:104790002191222319F02015D9F7F3CFFB012191A4
:1047A000201519F41E92119606C02223C1F70D9010
:1047B0000020A1F7D001FA01A193B08308957AE017
:1047C000979F902D879F802D910D11240895F89427
:0247D000FFCF19
:1047D200200053796E746178204572726F72000006
:1047E20000000000000000000102020303030304B2
:1047F200040404040404040505050505050505056E
:10480200050505050505050606060606060606064D
:104812000606060606060606060606060606060636
:10482200060606060606060707070707070707071D
:104832000707070707070707070707070707070706
:1048420007070707070707070707070707070707F6
:1048520007070707070707070707070707070707E6
:1048620007070707070707080808080808080808CD
:1048720008080808080808080808080808080808B6
:1048820008080808080808080808080808080808A6
:104892000808080808080808080808080808080896
:1048A2000808080808080808080808080808080886
:1048B2000808080808080808080808080808080876
:1048C2000808080808080808080808080808080866
:1048D2000808080808080808080808080808080856
:1048E200080808080808082000D001000000040495
:1048F2001F040400000004001F0004000000110A4D
:10490200040A1100000102030405060708090C004D
:104912000D0001020708090A0405060B0102030C37
:0E4922000F000E0D3F065B4F666D7D077F6F29
:00000001FF
